:020000040800F2
:10000000F0FF01202151060845C8050891DE0108CE
:1000100099510608995106089951060800000000F8
:1000200000000000000000000000000049C80508B2
:100030004DC805080000000051C805085D9A010878
:1000400099510608995106089951060899510608D0
:10005000995106089951060871B0000879B0000856
:1000600081B0000889B0000891B00008B1AD000867
:10007000C5AD0008D9AD0008EDAD000801AE00081F
:1000800015AE000829AE00089951060800000000CE
:1000900000000000000000000000000099B000080F
:1000A00099CD000831CD0008A9CD000821CD000868
:1000B00059CD000869CD000879CD0008995106088E
:1000C0009951060899510608995106089951060850
:1000D000995106088D9901089999010800000000BE
:1000E000A1B00008995106084DCF05080000000096
:1000F0000000000000000000000000003DAE00080D
:10010000000000009951060889CD000899510608A1
:1001100000000000000000000000000000000000DF
:1001200051AE000865AE000879AE00088DAE00083B
:10013000A1AE000800000000000000000000000068
:1001400000000000000000000000000055C8050885
:10015000B5AE0008C9AE0008DDAE0008995106082A
:10016000995106089951060800000000000000009F
:10017000000000000000000000000000000000007F
:100180000000000099510608000000000000000077
:08019000995106089951060877
:08019800B44C06000100000058
:1001A0000E02010002000000104200201842002050
:1001B00000000000D878070814420020FA0101006E
:1001C00004000000045B002020420020000000002A
:1001D000C9F100081C4200200530010008000000A1
:1001E000D83C00202842002000000000DC780708EE
:1001F000244200201302010004000000D43C00202F
:100200003442002000000000E4780708304200205B
:10021000062001002800000058320020444200203F
:1002200000000000E1F10008404200201602150025
:100230003F0000000C2F0020704200200000000052
:100240003DF300086C4200202C0004001000000068
:1002500010B3002024B3002000000000B5140308F0
:1002600020B3002025201E002C010000E4B1002056
:1002700038B30020000000000000000034B300206C
:100280002B001200240000009CB1002068B4002064
:1002900000000000C514030864B400201E400100E3
:1002A0004D000000189F002090B4002000000000C6
:1002B000E87807088CB400200D1001002800000029
:1002C000EC9E0020E4B400200000000001F40108CE
:1002D000E0B40020012001000C000000DC980020A8
:1002E00010B5002000000000367907080CB500208A
:1002F00027000100040000005099002020B50020D4
:1003000000000000427907081CB5002023200100EE
:10031000100000004099002028B5002000000000D7
:1003200011AE030824B500201F020B0016000000C8
:1003300054B500203CB50020000000001DF300086B
:1003400038B500201B0201001000000080B500201D
:1003500070B5002000000000CDF200086CB5002050
:10036000280204000400000098B5002094B5002085
:10037000000000009DF2000890B500202702040054
:1003800004000000A4B50020A0B50020000000007B
:1003900091F200089CB500201C0202001C00000025
:1003A0006C9F0020ACB5002000000000ADFA0008F2
:1003B000A8B50020001201000A000000D8B50020F6
:1003C000CCB5002000000000A1F10008C8B5002055
:1003D0001A0201003C00000024B60020E8B500200D
:1003E0000000000061FE0008E4B5002004000800E1
:1003F00080000000A8A2002064B6002000000000D9
:100400000000000060B6002019020100100000008A
:100410009C9F0020E8B6002000000000F1F20008D8
:10042000E4B60020081203000F00000038A30020EB
:10043000FCB60020000000006DF10008F8B60020B6
:10044000031201003D0000008CA4002010B7002022
:1004500000000000467907080CB7002001020100E7
:100460000A0000007CA7002054B700200000000014
:10047000B9F1000850B700200C0201000400000090
:1004800048A3002064B7002000000000D1F100085C
:1004900060B7002012120100040000006CCC0020A4
:1004A0006CB7002000000000C1F2000868B700200F
:1004B000110201000800000070CC002074B7002079
:1004C00000000000A9F2000870B70020F831010018
:1004D00006000000E49E002080B70020000000001D
:1004E000847907087CB70020021001000C0000008E
:1004F00030A400208CB70020000000008C79070891
:1005000088B70020FE01010014000000889F002031
:100510009CB700200000000045F1000898B70020BB
:10052000390001000700000084A30020B4B70020B8
:100530000000000081F30008B0B70020FF21010097
:100540000500000014A10020C0B70020000000003A
:1005500011F30008BCB70020F701010006000000FD
:10056000AC9F0020CCB7002000000000987907085D
:10057000C8B70020FC0101000900000078CC002071
:10058000D8B7002000000000E1F20008D4B7002036
:10059000FB0101000100000084CC0020E8B700202E
:1005A00000000000E9F20008E4B700201A00010092
:1005B0000E00000028A30020F0B70020000000007B
:1005C0009E790708ECB70020FD0101002100000022
:1005D00042A2002004B800200000000003740108BB
:1005E00000B800201D020200060000003CA200200E
:1005F0002CB80020000000000000000028B80020F7
:10060000F90101000400000088CC002038B8002067
:1006100000000000B973010834B800201230010056
:100620001D0000003C90002040B8002000000000A9
:10063000AC7907083CB800200C600400780000008A
:100640008C97002064C40020000000000D6B02089D
:1006500060C400200E80040090020000FC94002082
:10066000E0C4002000000000190F0308DCC40020D3
:10067000206201000C000000F094002074C70020EC
:1006800000000000CA79070870C700201840010068
:1006900038000000B894002084C70020000000004B
:1006A000CDFE000880C700202A12010008000000CB
:1006B000B0940020C0C7002000000000D6790708D1
:1006C000BCC700200A900100240000008C94002088
:1006D000CCC700200000000025AE0308C8C70020DA
:1006E0002F2001002200000068940020F4C70020A1
:1006F00000000000DE790708F0C700202C1201007E
:1007000006000000609400201CC8002000000000CB
:10071000007A070818C80020020201000300000048
:100720005C94002028C800200000000079F3000835
:1007300024C80020031101000A000000509400208A
:1007400030C8002000000000698F04082CC8002079
:10075000F5C10100740000003C93002040C8002057
:10076000000000007D3704083CC80020FD17010090
:10077000A0000000B0930020B8C8002000000000D6
:100780002D2E0408B4C80020263001000800000007
:10079000349300205CC9002000000000D18C0408C4
:1007A00058C9002028400100160000001C930020BA
:1007B00068C9002000000000E1C7030864C90020E8
:1007C00014100100050000001493002084C90020CB
:1007D00000000000050F030880C90020163001004A
:1007E000080000000C93002090C9002000000000C9
:1007F000067A07088CC900200B3001001A0000009F
:10080000F09200209CC90020000000000E7A07082A
:1008100098C90020220201001C010000D491002090
:10082000BCC9002000000000310D0108B8C900203B
:1008300029201400780000005C910020DCCA002010
:100840000000000000000000D8CA002021020100C2
:10085000F00000006C90002058CB00200000000049
:100860006D31040854CB0020F62101000C0000007B
:10087000609000204CCC002000000000287A07087F
:1008800048CC002013100100040000005C90002000
:100890005CCC002000000000347A070858CC00200F
:1008A000375001002800000048D500209CD60020C9
:1008B00000000000387A070898D600201B3001009D
:1008C0001000000028D00020C8D600200000000042
:1008D0008D260408C4D6002010100100020000007C
:1008E000E8CD0020DCD6002000000000607A070878
:1008F000D8D60020190001000500000028D40020EF
:10090000E4D6002000000000627A0708E0D600204C
:100910000101010004000000B0DD0020F4DD002032
:100920000000000000000000F0DD002000010100D8
:1009300004000000ACDD0020FCDD00200000000011
:10094000687A0708F8DD00200201010003000000BA
:10095000A8DD002004DE002000000000FD6A02087F
:1009600000DE00202B0201000C000000B0DA0020A5
:100970000CDE0020000000006C7A070808DE002072
:100980001F5001002400000020D900201CDE0020A0
:1009900000000000787A070818DE002038400100C7
:1009A000060000000CD7002044DE002000000000FC
:1009B0009C7A070840DE00200502010004000000C8
:1009C0007CE0002014EF002000000000A27A07085D
:1009D00010EF00202D02010001000000B4DF002014
:1009E0003CEF0020000000000000000038EF002075
:1009F0002902010040000000D0DE002044EF00206A
:100A000000000000A67A070840EF00202332010012
:100A100014000000DCF10020F400012000000000C0
:100A2000E87A0708F00001201E020100060000001D
:100A3000CC4B01208050012000000000FC7A070808
:100A40007C5001200D12010014000000044B012015
:100A50008C50012000000000047B07088850012012
:100A60000B2201003D000000AC430120A4500120F6
:100A700000000000187B0708A050012009020100B7
:100A8000010000005C670120906701200000000069
:080A9000567B07088C6701206A
:100A980012010002000000408304205700020102F6
:100AA80003010000040309041A0300000000000009
:100AB800000000000000000000000000000000002E
:100AC80000000100D8000000000000000500000040
:100AD8000600000002000000000000009C06002044
:100AE8003C42002002000000010000004587000889
:100AF800980600200000000001000000010000002E
:100B080025870008DC01002000000000000000002C
:100B180000000000000000000000000000000000CD
:100B280000000000010000000000000000000000BC
:100B380000000000000000000100000000000000AC
:100B4800000000000000000000000000010000009C
:100B58000000000003000000000000000500000085
:100B6800FFFFFFFF05000000FFFFFFFF94060020C6
:100B780038420020030000000100000075870008CB
:100B880090060020000000000100000001000000A5
:100B98008D870008140300200000000003000000F7
:100BA800000000000000000000000000000000003D
:100BB8000000000001000000000000009406002072
:100BC800384200200300000001000000758700087B
:100BD8009006002000000000010000000100000055
:100BE8008D870008180300200000000003000000A3
:100BF80000000000000000000000000000000000ED
:100C08000000000001000000000000008400000057
:100C180002000000000000000000000000000000CA
:100C280001000000000000000000000000000000BB
:100C3800000000000100000000000000100000009B
:100C48009406002038420020030000000100000044
:100C580075870008900600200000000001000000D1
:100C6800010000008D8700084403002000000000F8
:100C78000400000001000000958700080000000043
:100C8800000000000000000001000000000000005B
:100C9800FF000000006002401060024000000000F9
:100CA8000000000000000000000B00000000000031
:100CB80000000000000000000060024028600240C0
:100CC800010000000000000000000000060C000009
:100CD800000000000000000000000000006002406A
:100CE8004060024002000000000000000000000018
:100CF800100D0000000000000000000000000000CF
:100D0800006002405860024003000000000000003C
:100D180000000000160E00000000000000000000A7
:100D28000000000000600240706002400400000003
:100D38000000000000000000200F0000000000007C
:100D480000000000000000000060024088600240CF
:100D58000500000000000000000000002610000050
:100D680000000000000000000000000000600240D9
:100D7800A060024006000000000000000000000023
:100D8800301100000000000000000000000000001A
:100D980000600240B8600240070000000000000048
:100DA80000000000362F00000000000000000000D6
:100DB80000000000006402401064024000000000CF
:100DC80000000000000000000038000000000000E3
:100DD8000000000000000000006402402864024097
:100DE80001000000000000000000000006390000BB
:100DF8000000000000000000000000000064024045
:100E080040640240020000000000000000000000F2
:100E1800103A000000000000000000000000000080
:100E28000064024058640240030000000000000013
:100E380000000000163B0000000000000000000059
:100E480000000000006402407064024004000000DA
:100E58000000000000000000203C0000000000002E
:100E680000000000000000000064024088640240A6
:100E780005000000000000000000000026440000FB
:100E880000000000000000000000000000640240B4
:100E9800A0640240060000000000000000000000FE
:100EA80030450000000000000000000000000000C5
:100EB80000640240B864024007000000000000001F
:100EC800000000003646000000000000000000009E
:100ED8000000000000000401000002000100000200
:100EE8001000000007000000FFFFFFFFF588000862
:100EF80021890008398900083D890008C99D000832
:100F08004189000845890008247B06082D46050804
:100F1800D50A0508C55F05080000000000000000AC
:100F28003D6105087561050800000000000000002B
:100F38000000000079620508F1850008FD850008B9
:100F4800DD970008B597000809860008F99700089A
:100F5800159800081F0000001C0000001F0000007A
:100F68001E0000001F0000001E0000001F000000FF
:100F78001F0000001E0000001F0000001E000000EF
:100F88001F0000000068214C0600000005C000009A
:100F98000600000005000000AD6A0508B16A0508F2
:100FA800B56A0508C16A0508C56A0508B96A050869
:100FB800BD6A0508FFFF0000FFFFFFFF01000000FA
:100FC800F19A01080101FF005C9206089092060858
:100FD800C492060874070020FFFFFFFF0800000006
:100FE8000001010100000000FFFFFFFF20F80608D4
:100FF80000000802050303000000000028F80608A6
:1010080001000802050403000000000030F806088B
:1010180000000802050303000000000038F8060875
:10102800010008020504030000000000785E0708BC
:101038000200FE010110030000000000F8EC0608A1
:1010480003001402000300000000000040F8060836
:1010580004001F0202000B000000000048F8060808
:1010680005001F0202010B0000000000F98F0408B0
:10107800FB8F0408FF8F040807900408EDB10408EB
:10108800099004088DB204080B9004081590040810
:1010980025900408359004083D90040800000000DD
:1010A8000000803F00000000000000000000000079
:1010B8000000803F00000000000000000000000069
:1010C8000000803F00000000000000000000000059
:1010D800010102007D000000FFFFFFFFBCF80608C9
:1010E80060FC060800000000616A0208A086010092
:1010F80004000000BCF80608EC59070800000000CE
:101108008D910108E803000004000000CCED0608FA
:101118000000000000000000697202087D00000065
:10112800FF000000D8F106080000000000000000E1
:10113800319602087D000000FF0000001C640708CB
:101148000000000000000000354D03087D0000008D
:10115800FF0000000CFD0608000000000000000071
:101168003D800108E803000003000000CCF30608F6
:10117800000000000000000085730308102700002D
:10118800030000003CF806080000000049160308A8
:10119800259C01085F76000005000000E8FE0608AF
:1011A8000000000000000000F5E60108102700001C
:1011B80002000000F45907080000000000000000C9
:1011C80029760108E803000005000000005A070816
:1011D80000000000000000001D700208204E000002
:1011E80003000000105A070800000000000000007B
:1011F800C58D0208204E000003000000205A070891
:101208000000000000000000DD7C0108400D030024
:101218000300000098F90608000000000000000024
:10122800CD270208102700000200000080FC0608F5
:10123800000000000000000071660408102700008C
:1012480003000000305A07080000000000000000FA
:1012580031C0010810270000030000003C5A0708AD
:101268000000000000000000B5210208A86100008D
:101278000200000080F206080000000000000000E4
:1012880029C90108A86100000200000030F0060822
:101298000000000000000000B5E801081027000069
:1012A80002000000F0FE0608000000000000000038
:1012B80029EC0108A00F000002000000445A0708AA
:1012C8000000000000000000517D04081A410000E1
:1012D80002000000A0F9060800000000612E0408C2
:1012E80045CF04088545010002000000F0EF06081C
:1012F8000000000000000000CD9104081027000045
:10130800020000006CFC060800000000000000005D
:101318008D07040850C3000002000000505A070857
:10132800000000000000000009AF0408400D0300A1
:1013380001000000585A07080000000000000000E3
:101348009951040850C3000003000000645A0708BC
:101358000000000000000000E18A020840420F007F
:1013680001000000705A070800000000000000009B
:1013780039F4010850C30000010000007C5A070836
:101388000000000000000000C1BA04081027000097
:1013980002000000A8610000FFFFFFFFB1F4010890
:1013A800000000000000000000000000C5F4010873
:1013B8000000000000000000000000000101000023
:1013C800FFFFFF7F000000800000000028EF0020E2
:1013D800080000000000000018EF002008000000CE
:1013E8007EFF7EFFE2FFE2FFFFFFFFFF01F11F3FED
:1013F800D4000120E20001205D270208000000005F
:1014080000000000000000000000FA430000FA435A
:101418000000803F00000000000000000000000005
:1014280000000000000000000000000000000000B4
:1014380000000000000000000000803F04000000E1
:1014480060FECD0068010120BC010120D60100002A
:10145800FF1FFF1FFF00000045DB0308000000001E
:101468000000000018D50608000000000000000079
:1014780000000000F4C106080000000000000000A1
:1014880000000000ACC206080000000000000000D8
:101498000000000058C2060800000000000000001C
:1014A800A1D503080306012001000000FA0000008E
:1014B80001000000010000001C090120FA020120BF
:1014C80000C80100F902012000500100F8020120C3
:1014D800005A0100F6020120020000009887060861
:1014E800B4600708BC600708B20401200100C40901
:1014F80000000000B00401200100C4090000000041
:10150800AE0401200100C40900000000AC04012061
:101518000100C40900000000A80401200100C4095A
:1015280000000000AA0401200100C4090000000016
:10153800A60401200100C40900000000A404012041
:101548000100C40900000000DE09012000C80100F4
:10155800DF09012000C80100E00901200000FFFFA9
:101568000A000000E20901200100C8000100000093
:10157800E40901203200307532000000E60901203C
:10158800E2FF140005000000E80901207EFF1400B6
:1015980005000000EA09012005002C0105000000F3
:1015A800EC090120055A0500F109012000FF01009E
:1015B800F509012002000000E80B0020F9090120CC
:1015C80003000000F4C20608F009012000FF010032
:1015D800F409012002000000E80B0020F8090120AE
:1015E80003000000F4C20608FA090120FF7F010089
:1015F800FC09012000000000FFFFFFFF01000000C0
:10160800000A012000000000FFFFFFFF01000000AA
:10161800040A012000000000FFFFFFFF0100000096
:10162800C0020120EE02CA0801000000BE0201202B
:1016380000C8010064000000BD02012001C80100CB
:1016480064000000BC02012002000000E4880608D3
:10165800080A01200000803E050000000A0A012057
:1016680080C1803E050000000C0A01200083007D37
:10167800050000000E0A012080C1803E0500000020
:10168800100A012000FF0100120A01206400F40181
:1016980001000000140A01206400F40101000000A8
:1016A800160A01206400F40101000000180A012054
:1016B80004000000EC8B0608190A01200200000053
:1016C800E08B0608330301200D0000004C87060854
:1016D80030030120006401002E030120320010278E
:1016E8000A0000002D0301200D0000004C870608A9
:1016F8002C0301200D0000004C8706082B03012055
:1017080002000000848706080000000000000000B6
:101718000000000004C30608BB02012059000000B5
:1017280028890608B9020120030000003CC3060806
:10173800BA02012004000000008C060829030120D9
:10174800030000004CC30608280301200300000022
:101758004CC306081C030120000A01001A030120DB
:101768000000E80301000000180301200000E8035E
:101778000100000016030120000A010014030120E3
:101788000000E80301000000120301200000E80344
:10179800010000000A030120C800E803010000005E
:1017A800100301201400FA00010000000E030120BC
:1017B8000100E803010000000C03012000050100FE
:1017C80008030120020000005888060806030120CB
:1017D8000000F40101000000040301200000F401EE
:1017E80001000000020301200000F40101000000D4
:1017F800000301200000F40101000000FE020120A6
:101808000000E80301000000FC0201200000E803DA
:1018180001000000E502012019640100E402012032
:10182800020000004C880608D9020120006401006B
:10183800D802012000640100E002012000640100D8
:101848000A000000DF020120006401000A00000015
:10185800DE020120006401000A000000E30201200A
:1018680000FF01000A000000E202012000FF010061
:101878000A000000E102012000FF01000A00000048
:10188800DD02012001FF01000A000000DC02012046
:1018980001FF01000A000000DB02012001FF010036
:1018A8000A000000260301200000F40101000000E6
:1018B800240301200000E8030100000022030120A6
:1018C8000000E80301000000200301200000E803F5
:1018D800010000001E0301200000E80301000000D1
:1018E80000060120E803D0070A000000FE050120D9
:1018F80000640100FC050120E803D0070A0000008D
:10190800FA050120006401000A000000F905012021
:1019180000960100F005012000C80100EF05012034
:1019280000640100EE05012000640100ED050120BE
:1019380000640100EC05012000640100EB050120B2
:10194800FF080100EA0501200164010005B203084F
:1019580049B20308000000005CC30608F305012033
:1019680001320100F205012001000000208806086C
:10197800F10501200400000028880608E905012077
:1019880000960100E805012000640100E705012038
:1019980000FA010064000000E60501200AFA0100CF
:1019A800E50501200AC80100E405012000640100E2
:1019B800E305012000640100E20501200A5A010044
:1019C800E105012000C80100E005012000C8010070
:1019D800F605012000320100F8050120001401007D
:1019E800F7050120005F0100F50501200400000053
:1019F80018870608F4050120006401000A000000A9
:101A0800D30201200AC805000A000000D202012002
:101A180001000000D48C0608D50201200AC8050080
:101A28000A000000D402012001000000D48C06083E
:101A3800CA02012000C805000A000000D1020120E6
:101A480000C805000A000000CB02012000C80500FC
:101A58000A000000CC02012000C805000A000000AE
:101A6800CF02012000C805000A000000D0020120B2
:101A780000C805000A000000CE02012000C80500C9
:101A88000A000000CD02012000C805000A0000007D
:101A9800C902012002000000E4860608DE050120D4
:101AA8000000D00701000000D905012000C801008E
:101AB800D805012000C80100D705012000C8010091
:101AC800DC0501200000D00701000000D605012038
:101AD80000C80100D505012000C80100D405012077
:101AE80000C80100DA0501200000D007010000004D
:101AF800D305012000C80100D205012000C801005B
:101B0800D105012000C801002C6C07080000000066
:101B18000000C4090120386C07080708000000000D
:101B280008120020406C0708070800000000001297
:101B38000020486C0708070800000000F811002082
:101B4800506C0708080800000000EC110020586CD1
:101B58000708070800000000E4110020606C07086F
:101B6800070800000000DC110020686C070807085F
:101B780000000000D4110020706C0708080800005D
:101B88000000C8110020786C07080710000000004A
:101B9800C0110020806C0708071000000000B81171
:101BA8000020886C0708071000000000B011002012
:101BB800906C0708081000000000A41100205C6069
:101BC80007080100000000000000000000000000FD
:101BD8001000000000000000000000003DB50308F0
:101BE8004DB50308F3C70308CCC306083903012021
:101BF800005A01003803012000C801003603012003
:101C0800E803D00701000000000000000000000009
:101C1800B9DF030868C406081A0A01200300000097
:101C2800D48606081B0A0120000301001C0A0120B3
:101C380000030100611B0408D51B04080000000014
:101C4800BCC40608491C04088D1C040800000000D8
:101C580064C50608C9B50308DD840408000000004F
:101C6800E4C506081D0A0120010301008D1F0408B0
:101C7800C11F04080000000074C906086DB00308FD
:101C880095B0030800000000F4C90608211D0408E7
:101C9800A11D04080000000058CA0608EDB4030896
:101CA800B5DA03080000000010CB060801D70308C6
:101CB80031B0030800000000B8CB060845B403089B
:101CC800000000000000000054CC060805B303081B
:101CD80071B3030800000000B8CC06088DB20308F1
:101CE800C9B203080000000070CD0608F9190408FD
:101CF800D1B1030800000000FCCD0608CF05012083
:101D080003000000B4090120D5B3030811B4030887
:101D180000000000DCCE0608411A040899D903081F
:101D2800000000004CCF060849B1030875D8030825
:101D38000000000038D106089D19040835D80308AA
:101D48000000000010120020D00501200300000050
:101D58007009012069B5030899B50308000000005F
:101D680044D2060875D503080000000000000000F2
:101D7800A8D20608D91C0408F98404080000000049
:101D880044D3060800000000000000000000000026
:101D9800E0D306081319040801D80308000000005E
:101DA80060D4060800FF00000000000000000000EA
:101DB800ED1E04080000000000000000A0D6060880
:101DC8000100E001010000000000010025440408B2
:101DD800614604080000000094DC0608F548040881
:101DE8000000000000000000F8DB0608091B0508D9
:101DF80000000000000000006CDB06083B420408FD
:101E0800000000000000000024DB06082D202D2D16
:101E1800202D2D2D2D202D2D2D000000000000003F
:101E280000000000000000000000000101FF0000A9
:101E3800FFFFFFFF0000803FFF010000240A012090
:101E480088136F1701000000260A012088136F17F6
:101E580000000000280A012088136F170100000005
:101E68002A0A012088136F1700000000A51E040825
:101E780000000000000000008CD80608D20F0120E6
:101E880001000000E0D806082D0A0120010000002A
:101E9800ECD80608D40A012002000000F4D806088D
:101EA800C91E0408000000000000000000D9060850
:101EB80000000000000000000000000054D90608DF
:101EC800000000000000000000000000C4D906085F
:101ED800220A01200200000018DB0608C0120120B7
:101EE800E0150C1700000000C01200009A15012030
:101EF800000000000000000098150120000000000C
:101F080000000000961501200000000000000000FD
:101F18009415012000000000000000009215012027
:101F280000000000000000009015012000000000E3
:101F380000000000F0150020000000000000000074
:101F48002C0A012003000000FCD90608000000004C
:101F580000000000000000000CDA06089E150120B1
:101F6800E0150C1700000000A01501200200000079
:101F780018DB06082D202D2D202D2D2D2D202D2D63
:101F88002D2D0000000000000000000000000000EF
:101F98000000000000000000000000000000000039
:101FA80044DA0608A21501209CFF2C01000000005D
:101FB8009A120120E0150C1700000000D61101202C
:101FC8000200000018DB06082D202D2D202D2D2DB8
:101FD8002D202D2D2D2D00000000000000000000F8
:101FE80000000000000000000000000000000000E9
:101FF800000000007CDA0608210A01200200000027
:1020080018DB060801010000FCFFFFFF01FD0100CD
:10201800881B012000000000801B01200000000038
:1020280001AA550902000000AA5503009FAA550BF2
:102038000100000014010000FF0000000902430035
:10204800020100C032090400000102020100052457
:1020580000100105240100010424020205240600E1
:1020680001070582030800FF09040100020A0000B5
:10207800000705010240000007058102400000003A
:1020880009026400030100C03209040000010300D2
:102098000000092111010001223600070583030908
:1020A800000A080B010202020100090401000102F2
:1020B8000201000524001001052401000204240285
:1020C800020524060102070582030800FF0904022D
:1020D80000020A0000000705010240000007058110
:1020E80002400000AA550701000008000100000096
:1020F800AA5505010000AA550501000001010000CC
:10210800A400000000000000000001010100000020
:1021180005010905A101A1000501093009310932AC
:10212800093309350934093609371581257F7508BA
:102138009508810205091901290815002501950846
:1021480075018102C0C0000009022200010100E0FF
:1021580032090400000103010200092111010001F4
:102168002236000705830309000A00001201000255
:102178000202004083044057000201020301FFFFEE
:10218800FF000000F4010000000000000000000053
:102198000000000001000000B5090508000000006B
:1021A8000000000000000000010000000000000026
:1021B80000000000010203040102030406070809E5
:1021C80009022000010104C03209040000020806C7
:1021D8005005070581024000000705010240000084
:1021E800010B010012010002EF0201408304563284
:1021F80000020102030100000403090401010000B8
:1022080050C3000014E40608010125000001000085
:10221800204E000000000000000000000101010045
:102228000009185006000000D007000002040C0046
:102238000107186007000000A00F000003040E004B
:1022480002051870070000000A1A000004040C00B8
:102258000302188007000000204E000005020C0051
:10226800000997FF8106C409C40903008813010700
:1022780094FFE40CB80BC40906008813020590FF0C
:10228800EF16AC0DC4090A00881303028DFF2E2A2D
:10229800A00FC40900008813181C002074500120E6
:1022A800040000000100000069AE050800000000FD
:1022B8000000000000000000000000000000000016
:1022C800141C0020000000000400000001000000B1
:1022D800E1AE05080000000000000000000000005A
:1022E800000000000000000086000000F019002037
:1022F8000000000004000000010000009DAE050879
:1023080000000000000000000000000000000000C5
:10231800000000001C1C0020785001200400000070
:1023280001000000FDAD05080000000000000000ED
:1023380000000000000000000000000097000000FE
:10234800441A002000000000030000000100000003
:1023580059AE050800000000000000000000000061
:1023680000000000000000001B000000701A0020A0
:102378000000000003000000000000000000000052
:10238800000000000000000008000000010000003C
:102398008DAE0508000000000000000000000000ED
:1023A8000000000000000000101C002070500120F8
:1023B800040000000100000025C20508000000001C
:1023C8000000000000000000000000000000000005
:1023D8000C1C0020000000000400000001000000A8
:1023E800E1AE050800000000000000000000000049
:1023F8000000000000000000081C00200000000091
:1024080002000000000000000000000000000000C2
:10241800000000000800000001000000D1AE05081F
:1024280000000000000000000000000000000000A4
:1024380000000000041C0020000000000400000050
:1024480001000000E1AE05080000000000000000E7
:10245800000000000000000000000000C94005085E
:1024680069410508A53B0508F5090508E54405087F
:10247800D9090508C1090508050A0508150A050846
:102488000000000000000000E14505087D0A05087D
:10249800C544050800000000AD0A050815460508F2
:1024A800F53A0508CD3A05080000000000000000D4
:1024B800A10A0508796A0508A16A0508A5C70508DB
:1024C80089C70508C1C70508DDC70508F9C7050894
:1024D80035450508590A0508B542050800000000F9
:1024E800250A05081D390508BD390508A53A050856
:1024F80000000000000000004D0A05088300FFFFEF
:102508001A0000008200FFFF1D0000008200FFFF8C
:102518001700000015000000C700000005000000BB
:1025280006000000301C0020000000000000000031
:102538000000000000000000000000000000000093
:102548000000000000000000000000000000000083
:102558000000000000000000000000000000000073
:102568000000000000000000000000000000000063
:102578000000000000000000000000000000000053
:0825880000000000000000004B
:10800000074BD0F8E4105B68D0F8F0205B1A9A4276
:10801000B8BFC0F8F030012380F81C310020704751
:10802000001000E01B4B01681B4A03F5727C03E063
:1080300063452CD053F82C2F9142F9D170B593F8A9
:1080400004E0427996450AD0634505D053F82C2FB9
:108050009142F4D06345F9D14FF0FF3070BD9E4698
:108060008468DEF80C50A5424FF0000208D00132BF
:10807000032A0EF10C0EE7D0DEF80C50A542F6D123
:10808000DEF81050C668B542F1D150B270BD4FF065
:10809000FF307047006A06080000014030B5EAB1C1
:1080A0008E464FEA014C034600F1C00500241968D2
:1080B0009A6841EA0C0142EA0E029A60C3E9001490
:1080C0000C33AB42F3D1D0F8C030C0F8C44043EA1F
:1080D0000E03C0F8C030C0F8C84030BD4FEA014EB2
:1080E0008C46E0E783691969B3F80CC00A6830B4BC
:1080F0009C6822F0010224680A60A28992B222EAF6
:108100000C02A281027D04681F2A06D96568203A04
:1081100008209040284245D0FEE72568082090407E
:108120002842F9D1202000FA02F2A260264A1278F1
:10813000002A35D01A7E012A39D0D3F8F420013232
:10814000C3F8F420EFF31181502282F312885868AB
:108150005C6C026822EA04029C6C2243C9B2026091
:1081600081F31188D3E90C401A6999681D6C09687C
:1081700014605061D3E90E40546090600024B3F85D
:10818000A800D5604C62C8621068012420431060CA
:108190001C7683F8F1408A899B8913439BB28B81BB
:1081A00030BC7047202000FA02F2E260BEE70022F5
:1081B00083F8F120D3F8F8000A68013022F00102B8
:1081C000C3F8F8000A60EBE7901C002010B40C4CD8
:1081D0006368002B11DD002004F1080C0146DCF877
:1081E000A03003F1C00259600C339342FBD16368A5
:1081F000013083420CF5807CF1DC5DF8044B704764
:10820000901C0020704700BF024B03EB401090F819
:1082100025047047901C00204368B0F8502010B42B
:108220001A83EFF31182502383F312884168446C60
:108230000B6823EA0403C46C2343D2B20B6082F3BD
:108240001188D0E907418268036912681C6059618E
:10825000D0E909415C60C46A9960B0F86010DC60E4
:108260000023D1625DF8044B0376704710B4037DA0
:1082700001681F2B09D94C68203B202202FA03F326
:108280001C4215D15DF8044B70470C68202202FA9D
:1082900003F31C42F6D00D4A4068002482F80845DA
:1082A00002685DF8044B22F0010202608B607047A7
:1082B000064A4068002482F8084502685DF8044BCD
:1082C00022F001020260CB60704700BF901C0020CA
:1082D0000C2911D8DFE801F023101010191010102C
:1082E000111010100700838B23F400631B041B0C78
:1082F00043EA022292B282837047838B23F0080301
:108300001B041B0C1A4382837047038B23F4006306
:108310001B041B0C43EA022292B202837047038BB8
:1083200023F008031B041B0C1A430283704700BF91
:10833000704700BF0B4890F8401589B101EB41012F
:10834000002310B4490000F5A9601C4650F8232012
:10835000063302B114608B42F8D15DF8044B7047CC
:10836000704700BF901C00200B4890F8401589B161
:1083700001EB4101002310B4490000F5A9601C463F
:1083800050F82320063302B114609942F8D15DF809
:10839000044B7047704700BF901C002001207047BD
:1083A000034B00EB400003EBC00090F85905704709
:1083B000901C002007EE900AB8EE670A704700BFD5
:1083C000BCEEC00A10EE103A98B2704710B50C29F6
:1083D00037D8DFE801F09736363666363636373628
:1083E00036360700038C5488B2F80CE023F480532F
:1083F0001B041B0C0384038CB0F804C0818B21F494
:10840000E6414EEA040E0904148823F40053090CD3
:1084100041EA04211B04754C1B0C43EA0E33A042B5
:108420001FFA8CFC9BB289B200F0AE8004F5806428
:10843000A04200F0A9809268A0F804C08183026481
:10844000038410BD038CB2F80CC0548823F48073ED
:108450001B041B0C0384038CB0F804E0818B23F411
:1084600000731B044CEA040C21F073011B0C43EA5B
:108470000C230904B2F800C0090C41EA0C0C5B495A
:1084800088421FFA8EFE9BB268D001F58061884257
:1084900064D09268A0F804E0A0F81CC0C263038412
:1084A00010BD038CB2F80CC0548823F010031B04D9
:1084B0001B0C0384038CB0F804E0018B23F0200331
:1084C0001B044CEA040C21F4E6411B0C43EA0C1398
:1084D0000904B2F800C0090C41EA0C211FFA81FC22
:1084E000424988421FFA8EFE9BB269D001F5806135
:1084F000884265D09268A0F804E0A0F818C08263B2
:10850000038410BD038C5488B2F80CE023F00103FF
:108510001B041B0C0384038CB0F804C0018B21F0F6
:1085200073014EEA040E0904148823F00203090CB7
:108530001B0421432D4C1B0C43EA0E03A0421FFADF
:108540008CFC9BB228D004F58064A04224D09268B1
:10855000A0F804C001834263038410BDD189548A0A
:1085600023F4006343EA0121138A2EF4405E23437F
:108570004EEA031E94884FF6FF330B4043EA042370
:108580001FFA8EFE9BB284E7148A2CF4804C4CEACE
:10859000841C1FFA8CFC4EE7D489B2F810E023F05B
:1085A00008032343548A2CF4407C4EEA040E94883A
:1085B00023F004034CEA0E0C1FFA8CFC2343C6E79D
:1085C000D189548A23F0800343EA0111138A2EF4DF
:1085D000406E23434EEA830E94884FF6BF730B40E0
:1085E00043EA04131FFA8EFE9BB283E700000140AA
:1085F000122301480B807047980100200423014892
:108600000B807047AC0100202048D0F8E837D0F844
:10861000EC2730B59B184FF01A040C8001D11C4890
:1086200030BD1B4AD0F8EA174FF0000E10467546D1
:10863000B3F1204F4FEA137C0CF130040EF1020E1F
:108640002ABF0CF1370C847080F802C0BEF1100F05
:10865000C5704FEA031300F10200E9D1002004467F
:10866000B1F1204F4FEA117303F1300C00F1020019
:108670002ABF373382F812C093740828D4744FEAA3
:10868000011102F10202EBD1014830BD00F0FF1FE1
:10869000B001002082B01F4B002201920193019B88
:1086A0001D4A04330193019B1968936803F00C037E
:1086B000042B07D0082B0AD0184B194AC3F80826F8
:1086C00002B07047154BC3F8081602B070475368E4
:1086D000506813F4800F00F03F00536813D1C3F3C8
:1086E00088130F49B1FBF0F101FB03F30A4A0B4970
:1086F0005268C2F3014201325200B3FBF2F3C1F8F7
:10870000083602B07047C3F38813B1FBF0F101FBE8
:1087100003F3EBE75028004000380240901C002093
:108720000024F4000123437700207047D0E90B2197
:1087300008B583690B4483610AB10846904700205D
:1087400008BD00BF436A1B681B6A5B685B78024612
:1087500013F0010008BF5077704700BFC26281610B
:10876000704700BF704700BF04307047C26281612C
:10877000704700BF436A1B681B6A5B689B780246B0
:1087800013F0010008BF5077704700BF0123437703
:1087900000207047D0E90B2108B583690B44836141
:1087A0000AB108469047002008BD00BF704700BFCF
:1087B0000430704710B4094CD4F80C064FF0340C58
:1087C0000CFB00F004EB000C04F5C2642044DCF860
:1087D0001046A469A4465DF8044B6047901C002035
:1087E000064BD3F80C26342101FB02F203F5C260DC
:1087F00013441044D3F81036DB691847901C00204E
:10880000043070470D4B93F87C26D3F87816024459
:10881000D2B283F87C2693F87C2608441206C3F86B
:10882000780605D593F87C2682F0800283F87C26B2
:10883000034B012283F83220704700BF901C0020B8
:10884000980100202DE9F047144FD7F88056ED0A23
:108850001ED00026B04607F5D769D7F884361048F1
:10886000D3F828A0C7F8B086AC19641010234A4684
:10887000E102D0470F280BDD0A4B03F1100C53F82F
:10888000041B013107D16345F9D12546B542E4DC2B
:10889000E802BDE8F087661CF8E700BF901C0020E6
:1088A000142300204823002010B5114CD4F8C8260A
:1088B000D4F8CC36D31A322B12D8D4F8D03693420F
:1088C00000D310BDD4F8D43633B119689B884869F9
:1088D000034214BF4B830B833232C4F8D02610BD41
:1088E0000021084610F032FC0023C4F8D03610BD39
:1088F000901C0020094A92F8E036D2F8D42603F002
:1089000001031AB123B9136892881A8300207047B3
:10891000136892885A830020704700BF901C002083
:108920004FF40070034B1060D3F8F0360B6000205A
:10893000704700BF901C0020002070470120704746
:10894000012070470020704730B4194B00209C7BF9
:1089500014B11D688D4206D001300B2803F11003BD
:10896000F5D130BC70479AB1124B03EB40218A42DB
:1089700019D0114B93F8E4278AB1104B01225A7099
:1089800000F5B17003EB00100123837130BC704718
:108990000A4B00F5B17003EB00108271E1E7012290
:1089A00083F8E427E9E7022CE3D1183BE8E700BFAE
:1089B000C8580020C8420020B0520020B042002019
:1089C00030B41D4C002384F8D03604F5C36004E0B5
:1089D00001330B2B00F1100015D005688D42F7D143
:1089E00090F80EC0BCF1030FF2D1C2B1134901EBF4
:1089F0004320824209D1A1F1180203F5B17302EBC1
:108A0000031301229A7130BC704794F8E42712B91D
:108A1000012284F8E4270A4A01215170EDE7084950
:108A2000D4F8CC2603F5B17301EB03130132042112
:108A30009971C4F8CC26E6E7B0520020C842002065
:108A4000B0420020A8B183681BB10E4B07229A7078
:108A500070470C4A1178D36003294FF004000CBF13
:108A600080214FF48071C2E9011113611375907078
:108A70007047044A02F580510123537081F8E437AE
:108A8000704700BFB0420020164BD0F8E0105A6883
:108A900010B50446D0F8D80071B1131A99420BDC16
:108AA00094F8D030C4F8D820012B10D0D4F8D430AA
:108AB0000133C4F8D43010BDD4F8E430C4F8D82061
:108AC0000344C4F8DC3094F8D030012BEED104F12B
:108AD000E801201D0FF05CFED4F8D4300133C4F857
:108AE000D43010BD001000E070B5224A224C234B58
:108AF00094B00546CDE90042214A0992A4F108024A
:108B00000A922A7F0493201D0023CDE905039A428F
:108B1000CDE90E330B931093139314BF052004205B
:108B200011936B6A0C9002200122029018688DF854
:108B30000C200E4607928DF820208DF834208DF8F9
:108B400048205AF0E5FB2B7F93B1330E04F8073C25
:108B5000063C320C330A22706370A670686A69465C
:108B60000FF016FE6B6A18685AF0D2FB14B070BD95
:108B7000073CEEE7B0230020D40100204587000821
:108B80002587000810B5044694B05022064968466F
:108B90005DF06EFE606A69460FF0FAFD636A186860
:108BA0005AF0B6FB14B010BDF46D06082DE9F04183
:108BB0000446406A00681E460F4690465AF0A8FBDD
:108BC000237F002B3FD02A4DA0690523EB67030EBE
:108BD00085F8453005F146039870020C000A58707C
:108BE0001A703B68C5F888300020D8F80030C5F806
:108BF0009030012E2363C5F8A0002BD0022E20D187
:108C0000D8F80420C5F89800796885F89400C5F86C
:108C10009C1013441749C5F8A4200120236385F84C
:108C2000A800C5F8AC10144B617F606A03F1140210
:108C3000002914BF194611460FF0AAFDE36A8BB153
:108C4000206BBDE8F0810A4DA0690423EB6705F1B4
:108C50004503C1E7074B85F89460C5E92630C5F8A0
:108C6000A400E0E7636A18685AF052FBE8E700BF27
:108C7000980100202D870008E401002000B583B092
:108C800081610192049A0093C26201236A4601A99C
:108C9000FFF78CFF03B05DF804FB00BF0C4AF8B58A
:108CA000136855692B4003EA000555617DB1094FF2
:108CB0000126B5FA85F4C4F11F0407EB840306FA14
:108CC00004F4D3F8240703689847A543F1D1F8BD0D
:108CD000003C0140901C0020038A2DE9F047B0F8C9
:108CE0000C901FFA89F919EA03092BD005460E46A4
:108CF0004FF000474FF00008B9FA89F327FA03F262
:108D0000D24391B21B3B298209EA0209042B16D8EF
:108D1000DFE803F0352C231A0300B36A002B37D0A9
:108D200003F1FF3A1FFA8AFAC6F82880746A34B150
:108D300023682046514698476468002CF8D1B9F161
:108D4000000FD9D1BDE8F0877068696B036889B2FC
:108D50009847B9F1000FCFD1F4E7B068A96B036869
:108D600089B29847B9F1000FC6D1EBE7F068E96B1B
:108D7000036889B29847B9F1000FBDD1E2E73069C5
:108D8000296C036889B29847B9F1000FB4D1D9E7CB
:108D9000E96A1FFA81FAC9E7F0B5836993F8DC2024
:108DA000012A8BB0054627D0023A012A2FD893F822
:108DB0004C21D3F89C10174C62F07F030B7086692E
:108DC000D6F8A0305F1C0FCCEC46ACE80F00D6F80C
:108DD0009C30CDE900370FCCACE80F0094E80300DD
:108DE0008CE80300694606F110000FF0D1FCAB6976
:108DF00019690A6A002AFCD1D3F8A0305A8852BAFD
:108E0000EA819A8852BA2A82DB885BBA6B82012097
:108E10000BB0F0BD446E0608F0B590F8DC30D0F829
:108E2000A060012B8BB004464BD015D8D0F89C30F5
:108E30004FF0FF321A605A609A60DA60D0F8E03082
:108E40000522B3F57A7FC0F8F02054D8032380F8C8
:108E5000DC3001200BB0F0BD023B012BF9D890F8BB
:108E60004D31D0F89C203A4D63F07F031370D0F859
:108E7000A0305F1C0FCDEC46ACE80F00D4F89C305E
:108E8000CDE900370FCDACE80F0095E803008CE882
:108E90000300694604F110000FF07AFC2269136A9E
:108EA000002BFCD173885BBAA4F8D030B3885BBACE
:108EB000A4F8D230F38801205BBAA4F8D4300BB008
:108EC000F0BD90F84C2190F84D319B1A5B100133A6
:108ED000DBB206EB430236F813305BBAA0F8D030B1
:108EE00053885BBAA0F8D23093885BBAA0F8D4302C
:108EF00001200BB0F0BD03691A7B2AB35B691BB379
:108F000090F8983003B390F84C31D0F89C20C4F816
:108F1000A40063F07F03137090F84C1190F84D316A
:108F2000D0F8A0200B48C4F804015B1A07330121D4
:108F3000C4F8FC30D4F89C3084F800110A44C4E929
:108F40003D3284F8DC1084E7022384F8DC3080E7CB
:108F5000446E0608018000082DE9F0430446406A8B
:108F6000344D006895B00E46914698465AF0D0F9B7
:108F7000314B0193314B049305F1CC030093217FD6
:108F80000223029305F1C402012300278DF80C305F
:108F900005920697002936D08DF834308DF8483088
:108FA000CDE90977330ECDE90E77CDE9107785F855
:108FB000C5300523CDF82C908DF82070CDF8308089
:108FC0001397C6350793330C1D4F2B70330A6B7004
:108FD000AE70D7F86807656A0FF064FB637FA880FE
:108FE00033BB05A928460FF0D3FB636A18685AF013
:108FF0008FF9D7F86C070FF055FB636A98804046ED
:1090000015B0BDE8F0838DF834308DF84830042376
:10901000CDE90911CDE90E11CDE91011CDF82C9053
:109020008DF82010CDF830801391C5350793CAE72D
:109030006946D7E798010020F423002045870008FF
:10904000901C00202DE9F0412F4F07EB401898F8B5
:1090500024340BB9BDE8F0818C2303FB00730E466A
:1090600093F8722788F80A24002183F872170446BF
:1090700045010FF0BFFAB8BB3D442448A5F8086489
:1090800000EB44100FF016F93B78D5F82024A3B17B
:10909000D5F80C14D2F8A03001248C4003F1C001A3
:1090A000420010F4004F90B202D15A6822435A6035
:1090B0000C339942F4D1BDE8F081D5F80C44D2F8D4
:1090C000A03004F110020124944003F1C0014200D9
:1090D00010F4004F90B202D15A6822435A600C3308
:1090E0009942F4D1BDE8F08197F8303C03EB43039B
:1090F00007EBC303234493F8DD6B002EBCD00123A0
:1091000088F80A34B8E700BF901C0020982000209F
:1091100070B5214C94F8312C94F8303C9A4236D1F9
:1091200094F8323CE3B194F8335C1C4B002040F2DD
:109130000D3CB5B19A68998951601668196846F076
:1091400001061660A1F848C08A8992B242F4807282
:109150008A8194F8322C0130824203F11803E8DC52
:1091600070BD1A68118821F080010904090C118072
:109170009988D162118889B241F0800111805562CD
:10918000998A9689314389B291819D82E1E757F0AE
:1091900099FA0028C4D170BD901C0020C42800207A
:1091A0002DE9F0411D4D95F8312C95F8303C9A424F
:1091B0002DD16E68002E11DD00242F781848A046AE
:1091C000013417B1037E012B1CD002691368B4422D
:1091D00043F0010300F580701360F1D110F0ECFC56
:1091E000D5F8F44C002C0BDD0E4A02EBC4041168D8
:1091F00093888889083203439BB294428B81F6D1CD
:10920000BDE8F08180F8F080FFF706F8DDE757F061
:1092100059FA0028CDD1BDE8F08100BF901C002094
:10922000981C0020882900202DE9F84F037D026852
:109230001F2B044608D95068A3F120052021A9401E
:10924000014206D1BDE8F88F106820219940014203
:10925000F8D04B494B4D4968C5F8181D95F8331C9B
:10926000A669F9B98C2101FB0651D1F87807D1F82C
:10927000F0C70768DCF80000B1F87CE720F00100D7
:10928000CCF80000B98989B221EA0E01B9812978A8
:10929000E1B91F2B67D9A3F1200120238B40D360B4
:1092A000BDE8F88F8C2101FB0651D1F878170F69C2
:1092B0000868396821F001013960818921F48071E1
:1092C0000904090C818129780029E2D08C2706FB4A
:1092D00007F705EB070B2C49DBF8F097DBF878373D
:1092E00007F118084846D3F800A088444CF0C6FAA5
:1092F000D5F8203D244901228BF8C427002B38D013
:10930000BAF800309BB243F08003AAF800307437FB
:109310004FF0FF333944CAF82C3050464CF02EFD44
:109320008C2303FB065600234146C6F89437484673
:109330004CF03AFBD6F8F03716225A601A6842F021
:1093400001021A60D6F87827B6F87C37126891893E
:109350000B439BB293810A49237D49682268C5F873
:109360001C1D1F2B97D8202101FA03F39360BDE841
:10937000F88F10F021FC0449C5F8200DC0E700BFAC
:10938000001000E0901C0020002400202DE9F04196
:1093900010F012FC1E4F1F4E05464FF000087C686F
:1093A000002C29DD00231A4607EB0321013391F835
:1093B000F9109C4242EA0102F6D142EA0804E4B202
:1093C00090467368C3F308039BB9EFF3118383B925
:1093D00010F0D2FB431BB3F5FA6F02DCB8F1000FBB
:1093E000DDD11CB197F8243D542B09D02046BDE8AF
:1093F000F08110F051FBEDE744464FF00008E0E744
:10940000B7F82C3D0133A7F82C3D2046BDE8F0818C
:10941000901C002000ED00E02DE9F04F2DED028BB7
:10942000C34F83B03B7801932BB9012003B0BDEC4F
:10943000028BBDE8F08FD7F8C83608EE103A07F572
:10944000816A07F638594FF0000BBA4B1B6B5B452E
:1094500040F3E880DAF81830DAF80450D3E93A84B7
:10946000AD0010F0A9FB05F1085505EB481597F87C
:10947000248D864604F1806197F8400E3939B8F1A1
:10948000540F05EB811105EB801301D1A7F82E0DC8
:10949000994240F22C811A68002A00F021811A6C4E
:1094A000002A00F03181D3F88020002A00F02E81BC
:1094B000D3F8C02003F58073002AE9D15D1B9942DF
:1094C0004FEAA51540F21381611B45294FF00004B6
:1094D00028BF452103EB81119C46204626460DE01E
:1094E0001A6C002A40F0A780D3F88020002A40F0B0
:1094F000CD80D3F8C02003F580732AB9994206D9EC
:109500001A68002AECD04033994200F29880112E5C
:10951000344640F2F080D6F1150200F1EC80864925
:10952000D1F8D0309D42D7F8443E38BFC1F8D05072
:10953000AEEB0301002918DB03F5F42303F5907368
:109540009E4588BF0EF10503C7F8443E7A4B7A4921
:10955000D3F8D030052B86BF053BDBB2002387F85C
:10956000403E4FF0FF33C1F8D03042B100FA02F272
:10957000C4F11404012000FA04F444EA02006F4A22
:10958000C0F3C43302EB8303D3F86C1400F01F0361
:1095900002EB8303D3F86C3443EA0133C0F3441184
:1095A00002EB8101C0F3842002EB8000D1F86C242F
:1095B00043EA0213D0F86C2443EA022383EA13221D
:1095C00082EA121202F00F020F2A7AD1B3F5803F1D
:1095D00077D2B8F1540F4FEA131304D1B7F8282DFE
:1095E0000132A7F8282DD7F8402DB3F5606F02F1AE
:1095F0000102C7F8402D00F0A7800199A9F80C30AE
:109600004F4B5C2018EE102A00FB0B300EF088FF49
:109610000BF1010BBBF1080F0AF1200A09F1140943
:109620007FF413AF0123012087F83C3E03B0BDEC6B
:10963000028BBDE8F08F803399427FF668AFA3EBD1
:109640000C029211541C3F4A82FB04C2A2EBE4724A
:10965000012AB8BF0122904001241644013A04FABD
:1096600002F210431C46226892B1226C002A4FD0AD
:10967000D4F88020002A4DD0D4F8C02004F580749E
:109680003AB1A142EFD89C46234637E7C0333BE7C7
:109690004034A142F7D9E31A9B115A1C294B83FB92
:1096A00002C3A3EBE273012BB8BF012398401E4411
:1096B0000122013B02FA03F3184323469C4623464A
:1096C0001CE7B8F1540F27D0D7F8403D0133C7F855
:1096D000403DD7F83C3D0133C7F83C3D00218FE7C2
:1096E00040335D1B99424FEAA5153FF6EDAE10B130
:1096F000013887F8400EB8F1540F89D1B7F82A3DE8
:109700000133A7F82A3D83E78033D7E6C033D5E697
:109710008034BEE7C034BCE7B7F8283D0133A7F872
:10972000283DD7F8403D0133C7F8403DD1E700BFA1
:10973000901C0020882D002098010020006A060857
:10974000D82A00205655555597F8302C02EB420286
:1097500007EBC2025A4492F8DD2B0D2A7FF44DAF7D
:109760008023019989F81E304AE700BF10B50446EE
:109770005CF006FB81B22046BDE8104062E400BF09
:1097800038B50B4D00EB400005F5A96303EBC003B2
:1097900093ED027AD3ED037AE7EE007AC4002C440D
:1097A000B0EE670A5CF0ECFAD4F84835186038BDC2
:1097B000901C00200A4608B5054920B905484CF020
:1097C000A1FB034808BD04484CF09CFB004808BDC1
:1097D000BC2D002004E906082CE9060810B5044C4D
:1097E00004480A4621464CF08DFB204610BD00BFC0
:1097F000BC2D002054E9060810B5044C04480A4664
:1098000021464CF07FFB204610BD00BFBC2D002040
:1098100068E9060810B5044C04480A4621464CF095
:1098200071FB204610BD00BFBC2D002074E9060866
:1098300038B590F82830012B044604D0407F40B161
:109840000023637738BD406A03681A7B92B9637F4F
:109850000BB9012038BD0A4D0A49022305F59A7259
:109860000EF0C6FF95F8353103F0010383F00100D7
:109870006377E7E71B6A002BE9D0002038BD00BF03
:10988000882D00206C02002010B504462046FFF70A
:10989000CFFF0028FAD0012010BD00BFF0B511F0B5
:1098A000010583B00AD190F82860012E044607D044
:1098B000C368B3F1807F01D90123237703B0F0BDE2
:1098C0000A4B476AD3F868070EF0ECFEE368B880ED
:1098D000B3F1807FF2D9B7218DF804102677334693
:1098E0002A46384601A90EF083FFE7E7901C0020C6
:1098F00010B590F82830012B044603D00023012036
:10990000637710BD406A03681A7B3AB959F004FDC9
:1099100000F0010383F001006377F2E71B6A002B7C
:10992000F4D0002010BD00BF38B5114D044694F8A6
:109930002830012B05D00023637700232362012008
:1099400038BD606A03681A7B72B959F0E5FC00F013
:10995000010060770028F0D0D5F8C836226A9B1A3B
:10996000002BE4DB002038BD1B6A002BEDD0F3E7B1
:10997000901C002010B5FF22044690F82810406A81
:109980005AF002FD0E4BD3F8C83603F5FA73236282
:109990002046FFF7C9FF94F82830012B00D010BDF6
:1099A000606A0022A0215AF0C9FC94F82830012BEB
:1099B000F5D1606A1822BDE81040B0215AF0BEBC53
:1099C000901C0020CB0700D5704710B50446FFF768
:1099D000D1FF94F82830012B00D010BD02480EF0C2
:1099E00061FE636A988010BD00E1F50538B5044654
:1099F0000D46FFF799FF062294F82810606A5AF086
:109A0000C3FC94F8283001229342627705D0064BBC
:109A1000D3F8C8360F33236238BD606AEA0AD8210A
:109A20005AF068FCF3E700BF901C002038B583882B
:109A30004BB10546002461042846FFF7D7FFAB88E9
:109A40000134A342F7D838BD70B5104D95F83631C2
:109A500003B970BDD5F838610D4B0446F60AC3F85A
:109A6000D860FFF761FF94F82830012B08D0094B2C
:109A7000D3F8C8360022023385F83621236270BD40
:109A8000606A324610215AF035FCF0E7882D00203C
:109A900098010020901C00202DE9F047414F1E4600
:109AA000D7F8D830B3EBD12F90B00C46054690468E
:109AB00021D1DFF8F49095F82830C4F30A04C4F5F6
:109AC0000060B04234BF87B2B7B2012B3CD0D9F8A6
:109AD000C836023328462B62FFF726FF38B195F8C7
:109AE0002830012B23D0384610B0BDE8F087002085
:109AF00010B0BDE8F0874FEAD12AFFF715FF002824
:109B0000F5D095F828304FF0FF32012BC7F8D82058
:109B100042D0DFF89490D9F8C836023328462B6239
:109B2000FFF702FF0028E2D0C7F8D8A0C3E7686AB1
:109B300059F0F2FBC0F3011001380228D3D82846AF
:109B4000FFF718FF3846CFE78DF80240240A8DF85A
:109B500001406C6A8DF824308DF8383003230022E0
:109B60008DF800302046042301A9CDE90786CDE910
:109B70000522CDE90A22CDE90C228DF803200292BC
:109B80008DF810200F92CDF804D003930EF000FE54
:109B9000206859F0BDFB9AE7686A524613215AF0D3
:109BA000A9FBB6E798010020901C00202DE9F8439E
:109BB000436A384E044618680F46904659F0A8FB91
:109BC00096F83631002B37D0334DD6F83C3185F836
:109BD0007E31C3F3022385F87D3105F1DC093B6852
:109BE000C5F88431D8F800302C4AC5F88C31606A49
:109BF00000234946C5F894310EF0C0FDD6F83C313B
:109C0000D8F800201344C6F83C31C3F30A070123F7
:109C100086F83631EFB1224BC5F89431637F0BB92A
:109C200009F11409606A226349460EF0B1FDE36A46
:109C300043B3206BBDE8F883A369174DC6E94E33E3
:109C400085F88231C3F3022385F8813105F59679D1
:109C5000C5E7D6F83831134A606AD90AC5F8D81072
:109C6000DB0C85F8AF11A2F12C0185F8AE310EF0B6
:109C700085FDD6F83C31D8F8002086F83671C6F854
:109C80003831CBE7636A186859F042FB206BBDE8B6
:109C9000F88300BF882D0020980100201C030020BD
:109CA000958700084803002033B910B51C46C36AE5
:109CB00020469847204610BD78E700BF00B583B026
:109CC00081610192049AC26201A96A460093FFF77A
:109CD0006DFF03B05DF804FB2DE9F047089F88464F
:109CE00015460021202204461E465CF024FE4FB19A
:109CF0003B68E3811B0C23827B687A89E3821B0C1F
:109D00006282238340465AF061FBEB0619D4431E5E
:109D1000B8B108EB000701E0013B12D317F801CD01
:109D2000BCF12E0FF8D1C01A421E032AA8BF03228D
:109D3000082B03F1010AA8BF08239146C2441A4622
:109D400006E008280246C246A8BF08224FF00009D4
:109D50004FF0203341462360636004F1080720463A
:109D60005CF086FD174B23815146BB704A4638464E
:109D70005CF07EFD611EE31D11F801CFACF1610EB8
:109D8000BEF1190F9CBFACF1200C81F800C08B42D2
:109D9000F2D1384604F10B0110F8013BA3F1610246
:109DA000192A9CBF203B00F8013C8842F4D11823BB
:109DB0002373330CA382E572099B6683E361BDE8DC
:109DC000F08700BF202020002DE9F04FDFF88894B5
:109DD000D9F8C806C9F8CC0687B0002B00F0DA80A5
:109DE00001F5FE781344DFF874B40393164601F1CD
:109DF0002007C24621E0002E64D0D9F8FC36B342D9
:109E000000F0CC80D9F8F836B34200F0FF80D9F8E2
:109E10000037D9F80417B3424BD8B14200F2998108
:109E2000711A204655F0D4FB039B01369E4207F57C
:109E300000770AF5007A00F0AD80D9F80857B542EE
:109E4000A7F12004D7D8751BD9F8188705F00702A9
:109E5000EB080492D8F830200233934203D3D8F8A9
:109E6000382093420BD941461846059355F080FBA4
:109E7000059B8046002800F08C81C9F8180798F8E7
:109E80000420002A40F03481D8F82850002D00F03A
:109E90007981D8F830209B1A049A02EBC303D8F8D2
:109EA0000C20204602EB43224FF400714346A847A2
:109EB000BAE7B142B4D920464FF4007200215CF0F9
:109EC0003AFDB1E74FF40072314620465CF033FDB5
:109ED000802387F89E310C2387F8A231D9F8F83611
:109EE000D44AD9F8F016C4F8C6319342C4F8CA115E
:109EF00000F33481D04AD14C82FB03021A44D817B4
:109F0000C0EB621284FB0254CD4D85FB03C5C0EB50
:109F10002530C2EB821587F8A1015B1B801020F071
:109F20003F0001330343144487F8A031D317C3EB38
:109F3000E4142244BF4B87F89F214A1E9A4200F343
:109F40001981BD4BBD4883FB02311144D317C3EBCC
:109F5000611180FB0140BA4C84FB0254C3EB2433F3
:109F6000C1EB811487F8A531121B9B1023F03F032E
:109F700001321343084487F8A431CB17C3EBE01038
:109F8000014487F8A311552387F8DE31AA2387F807
:109F9000DF3149E7002007B0BDE8F08F4FF0FF3315
:109FA00084F8EC3184F8ED3184F8EE3184F8EF3147
:109FB000D9F81037C4F8E831522323706370612355
:109FC000A37084F8E73141230025E37084F8E6317B
:109FD000722384F8E43184F8E5314FF4F0722946B5
:109FE000A7F11C005CF0A7FC5523C7F8D051C7F8B7
:109FF000D451C7F8D85184F8FE316FF0550384F876
:10A00000FC5184F8FD5184F8FF310DE700214FF435
:10A01000007220465CF08FFC8A4A03CA47F81D0C88
:10A02000EB2007F8200C582007F81F0C902047F869
:10A03000191C07F81E0C002302220821F820E372E5
:10A04000227307F8131CA273E37307F8102C07F8A8
:10A050000B0CD9F8F80684F82C20D9F8F026637692
:10A06000121A2262D9F80007D9F80427E376121AE7
:10A070003F2020764FF0FF30A0763E202077012051
:10A080006377A377E37784F82D3084F82E3084F853
:10A090002F30626284F8300084F8313087F826105F
:10A0A000802187F82010292187F82210942187F831
:10A0B00023100E2187F824100D21634A87F82510FC
:10A0C000552187F8DE11AA2187F8DF1103CA5F4BFB
:10A0D000C7F82700C7F82B1003CB1388A7F82F3039
:10A0E0009378C7F83200C7F8361087F831309BE60E
:10A0F0004FF40072002120465CF01DFC049B002BF5
:10A100004ED1D8F84030002B00F0AA80049AD8F83D
:10A1100030304F49CDE9002220461122FFF7DCFD07
:10A12000D8F840301A6C002A00F0AD80049A1B6BFE
:10A13000CDE90022474911223846FFF7CDFDD8F876
:10A14000448007F120044FF4E075B8F1000F3FD1CF
:10A150006AE6F11A204655F03BFA65E6FF2387F8D8
:10A160009F3187F8A13187F8A031324B4A1E9A42BD
:10A170007FF7E7AEFF2387F8A33187F8A53187F88B
:10A18000A43100E7294620464FF400725CF0D3FB6F
:10A190004AE6A7F1240343F804BF9A45FBD143E6FE
:10A1A000D8F84030049AD8F84480002B0CBF012323
:10A1B0000223C3EB02154346002B3FF435AE013DAD
:10A1C0009B6CF9D198464FF40075002B3FF42CAEF0
:10A1D00025442034234620354446049698460EE014
:10A1E0005CF81C1B236BCDF800C000260196FFF71E
:10A1F00073FDA46C08F12008CCB1A84517D02379D1
:10A20000A44604F11C0E1122A8F12000002BE7D176
:10A2100062792669236B216842F02102CDE900E6CC
:10A22000FFF75AFDA46C08F12008002CE5D1049E2C
:10A23000FAE500BFFF03FB00832008828180808055
:10A24000975545418CE9060898E90608A4E90608EF
:10A2500084E9060888E90608901C0020DEADBEEF00
:10A26000049BD9F8F416CDE9003320460822FFF705
:10A2700033FDD8F84480B8F1000F3FF4D5AD3C462B
:10A280004FF4F075A4E7049BCDE9003352E700BF1B
:10A2900058B183884FF00042B3FA83F332FA03F3E4
:10A2A00003D002490A6813430B607047003C014029
:10A2B00090F8DB30052B03D890F81E31032B01D02A
:10A2C0000020704790F8233103F0FB03022B0CBFF2
:10A2D00000200720704700BF274A92F8323C7BB32A
:10A2E000D2F8341C884237D0012B29D0D2F84C1C2C
:10A2F000814235D0022B23D0D2F8641C884231D061
:10A30000032B1DD0D2F87C1C88422DD0042B17D0F3
:10A31000D2F8941C884229D0052B11D0D2F8AC1C5D
:10A32000884225D0062B0BD0D2F8C41C884221D0FD
:10A33000072B05D0D2F8DC1C814208BF07230CD0C4
:10A3400003EB430102EBC10103F1010CC1F8340C32
:10A3500082F832CC184670470023DBB218467047AB
:10A360000123FAE70223F8E70323F6E70423F4E7DF
:10A370000523F2E70623F0E7901C0020F8B52B4FE9
:10A380008C2505FB007595F87F3703B9F8BD0446A9
:10A390000E460EF02FF938BB8C2505FB04752448BA
:10A3A000A5F8706704EB8404C4EBC40400EB8400DC
:10A3B0000DF080FF97F8333C024623BB1D4BD5F8C8
:10A3C000F807D3F8403101219847D5F8F417B5F8CC
:10A3D0007C478A8AD5F8F03722438A8258601A6807
:10A3E00042F001021A60F8BD97F8303C03EB4303DA
:10A3F00007EBC303234493F8DD6B002ECCD001237D
:10A4000085F87237C8E7D5F87837D5F8F4175B794F
:10A410000869084903F0FC031844D1F840310421CD
:10A420009847D5F8F43780009881F8BD901C00203B
:10A4300000240020882D0020F8B5D0F880508668D0
:10A440000446284637684BF019FA002284F8542055
:10A4500038467179FDF73CFF717904F16002FDF730
:10A46000B5FF71790822FDF733FF4023636204F1E1
:10A47000180128464BF098FA2B6843F010032B6024
:10A48000F8BD00BF2DE9F04F694F2DED028B3C78F0
:10A4900085B034B90124204605B0BDEC028BBDE87F
:10A4A000F08FD7F8C83608EE103A0FF085FB614BF5
:10A4B000029093F87831002B00F0B48107F5EE6537
:10A4C00007F6486A07F6385B00260FE02846FFF7D4
:10A4D000B3FF584B93F8783101369E4205F18C0555
:10A4E0000AF15C0A0BF1140B80F2A880D7F8203D2A
:10A4F000029AD31A03D4AA6D9342C0F27C818C23B2
:10A5000003FB067393F8C43703F0FF020192002B9C
:10A51000DCD0AB68A9891A68D5F880305B681FFA6F
:10A5200083FE9389CEF1160E9BB223EA0103BEF19E
:10A53000070F9381CAD9D7F8403D0133C7F8403D92
:10A54000D5F8883003939C46002201215CF8044B27
:10A55000904689461BE0DCF80000B8F1140FA0EB30
:10A5600004031DDC13F1080448BF03F11704231191
:10A5700008EB24180446581E013102FA03F38E45F5
:10A5800009FA00F242EA03020CF1040C08D38E45EA
:10A59000E1D8C8F11503DCF800404FF01508EAE7F0
:10A5A000B8F1150F39D12448C2F38423C2F3441102
:10A5B00000EB830300EB8101D3F8EC34D1F8EC1409
:10A5C0001B0243EA011302F01F0100EB8101C2F3F9
:10A5D000C43200EB8202D1F8EC14D2F8EC240B4325
:10A5E00043EA023383EA132282EA121202F00F02D4
:10A5F0000F2A12D1C3F30F134FF6FF7293420CD000
:10A60000B3F5606F00F0FE80ABF80C30019918EEE6
:10A61000102A50460DF084FF58E7D7F83C3D01332F
:10A62000C7F83C3D002E00F0DF8000230193EDE7EA
:10A63000901C0020882D0020006A060801220021BD
:10A6400087F83C2EC7F8201D002B3FF423AF97F866
:10A650008017890700F1BE80D7F878170868497914
:10A660008A40018C92B289B221EA02010184018CF4
:10A6700089B20A43012B02843FF40CAF97F80C28EF
:10A6800012F0020FD7F8042810685479018C0CBF1F
:10A6900001220422A24092B289B221EA020101847D
:10A6A000018C89B20A43022B02843FF4F3AE97F87F
:10A6B000982812F0020FD7F8902810685479018C6E
:10A6C0000CBF01220422A24092B289B221EA020107
:10A6D0000184018C89B20A43032B02843FF4DAAE71
:10A6E00097F8242912F0020FD7F81C291068547922
:10A6F000018C0CBF01220422A24092B289B221EA4D
:10A7000002010184018C89B20A43042B02843FF4C4
:10A71000C1AE97F8B02912F0020FD7F8A829106837
:10A720005479018C0CBF01220422A24092B289B25A
:10A7300021EA02010184018C89B20A43052B0284BB
:10A740003FF4A8AE97F83C2A12F0020FD7F8342A4B
:10A7500010685479018C0CBF01220422A24092B2ED
:10A7600089B221EA02010184018C89B20A43062BD5
:10A7700002843FF48FAE97F8C82A12F0020FD7F880
:10A78000C02A10685479018C0CBF01220422A24017
:10A7900092B289B221EA02010184018C89B20A4392
:10A7A000082B02847FF476AED7F84C2B97F8543BF5
:10A7B000116850790A8C9B074CBF04230123834006
:10A7C0009BB292B222EA03020A840A8C92B2134329
:10A7D0000B845FE6D7F8782710685479018C04223F
:10A7E000A24089B292B23FE70399114858225CF027
:10A7F0003FF801960AE70024204605B0BDEC028B25
:10A80000BDE8F08F97F8302C02EB420207EBC20252
:10A81000324492F8DD2B0D2A7FF4F6AE80238BF8BC
:10A820001E30F3E6012287F83C2EC7F8203D32E6C1
:10A83000742A002043680B4A23F0407323F480738A
:10A8400043F48073436083681A4042F002028260DE
:10A85000C36A0139CAB223F4700141EA0251C162EC
:10A86000704700BFFDF7FFC0704700BF10B4046918
:10A870008269E468416814604024D460446900231C
:10A880000C31C2E90433C2E90633C2E90833C2E934
:10A890000A33C2E90C3393609363516084B1C26997
:10A8A000E0689363C2E90233C2E90433C2E90633C4
:10A8B000C2E90833C2E90A33C2E90C33C2E9000134
:10A8C0005DF8044B704700BF436800221A60037DA7
:10A8D0001F2B08D9203B2022016802FA03F343F022
:10A8E0001803CB6070472022016802FA03F343F09B
:10A8F00018038B60704700BF0268136A11B1D969F1
:10A9000001B3143330B49C681D689169DDB14FF414
:10A91000806088618D60104640690C6180B1596823
:10A92000D369D9B10A464FF480619A609961224394
:10A9300012F0010F14BF00224FF400521A621C6182
:10A9400030BC704770478D61064D4FF0FF0C85F8A5
:10A9500000C205F5007500688D60DDE7024A9A6067
:10A960009961E4E798010020082F00200168F8B5FC
:10A97000D1E9042304465568002B49D09861107D25
:10A980005E681F2831D81768202202FA00F040F0D4
:10A990001800B8601A7D1F2A32D91868203A20237F
:10A9A00003FA02F242F01802C26000232B60336007
:10A9B0003368896943F01003336028464AF0F4FF96
:10A9C00023683046D9694AF0EFFF2B68226843F0CC
:10A9D00001032B603368526843F0010333609388AE
:10A9E0009BB243F003039380F8BD17682038202200
:10A9F00002FA00F040F01800F8601A7D1F2ACCD847
:10AA00001868202303FA02F242F018028260CCE7B1
:10AA1000137D90611F2B1CD81068202202FA03F3CB
:10AA200043F01803836000232B602B68896943F08F
:10AA300010032B6028464AF0B7FF2B68226843F0CA
:10AA4000010352682B6093889BB243F0020393800A
:10AA5000F8BD1068203B202202FA03F343F01803EC
:10AA6000C360E0E72DE9F041794E074601253C68D7
:10AA700097F888806368B8881A8884F8245022F090
:10AA800040021204120C1A80228982421AD0B0F5B8
:10AA9000807F0246A8BF4FF48072022A1988B8BF8F
:10AAA0000222002A92FAA2F2B2FA82F289B208BF16
:10AAB0004FF0FF32013A21F0380141EAC20292B26E
:10AAC0001A802081397BA27A8A420CD01A8822F01F
:10AAD00003021204120C1A801A8892B2002900F0A4
:10AAE00092801A80A1721A8892B242F040021A80B3
:10AAF000226A9168002900F0A1804FF0000C143206
:10AB0000E64652F8100C8E4400EA060120B1B1F17D
:10AB1000805F23D0616909B352F8140C143200EA43
:10AB2000060110B1B1F1805F18D052F80C1C0CF185
:10AB3000010C0029E5D1227B82B1B8F1000F0DD0C4
:10AB4000BCF1010F6DD8BEF1070F6AD80CEB8C0178
:10AB50008900226A11440A7B002A62D0226A926824
:10AB60004FF00008002A51D0B8F1000F02D098F839
:10AB70000C2022B1BA6812B1116892884A83226A05
:10AB8000D2F800E0226A5168226A9268501E9AB197
:10AB9000BEF1000F23D01EF801CB1A899207FCD515
:10ABA000A3F80CC01A89D207FCD59A8992B209B1D0
:10ABB00001F8012B0138EBD2236A1B7BE3B9236A2E
:10ABC0001B697BB1236AD7F894001B699847012859
:10ABD0000DD0022806D100232362BDE8F0814FF09A
:10ABE000FF0CDAE7D4F82080236A14332362236A47
:10ABF0009B685BB16368B7E7BB68002BDFD01A685E
:10AC00009B881383DBE742F003026AE7236A1B6831
:10AC1000DBB1236AD3E9007222620022C3E9002279
:10AC200025E700213846FFF767FEBB6813B11A68B5
:10AC30009B8853833846BDE8F04197E6227B002A83
:10AC40008CD0B8F1000F84D188E72362C5E700BF3C
:10AC50000000FFFF10B1036882881A83704700BFAD
:10AC600010B1036882885A83704700BF08B51D2061
:10AC70000EF0DCF908B183794BB11E200EF0D6F945
:10AC800008B1837903B108BD5523C38008BD55239E
:10AC9000C380F2E710B40C4C002304F5C27C01E041
:10ACA000152B0CD003EB430201331CF80210814238
:10ACB000F6D122445DF8044B92F9860170474FF0BB
:10ACC000FF305DF8044B7047882D002070B502EB13
:10ACD0004202104C4FEA820E4FF0000C22460EF159
:10ACE0000805634604E00133172B11D012F81CCF7E
:10ACF0006045F8D192F801C08C45F4D15659002E28
:10AD0000F1D0C3EBC3030EEB8303181D204470BDC9
:10AD1000002070BD6C6F060830B502EB4202104D8A
:10AD2000104C4FEA820C0CF10C0E2A46002304E072
:10AD30000133172B11D052F82C4FA042F8D11479BF
:10AD40008C42F5D152F80E40002CF1D02C2000FBA3
:10AD500003C303F10800284430BD002030BD00BF0C
:10AD6000006A060800000140F0B110B504460F4823
:10AD700094F804E0002300F5C27C01E0152B11D00B
:10AD800003EB430201331CF802107145F6D1024473
:10AD9000617992F986212068D3B2022B02D8BDE8EE
:10ADA0001040B9E7002010BD00207047882D00201A
:10ADB0000348D0F8143213B100F5017018477047FA
:10ADC000980100200348D0F8383213B100F50A701A
:10ADD00018477047980100200348D0F85C3213B13F
:10ADE00000F5137018477047980100200348D0F809
:10ADF000803213B100F51C7018477047980100208D
:10AE00000348D0F8A43213B100F5257018477047F5
:10AE1000980100200348D0F8C83213B100F52E7015
:10AE200018477047980100200348D0F8EC3213B15E
:10AE300000F5377018477047980100200348D0F894
:10AE4000103313B100F54070184770479801002087
:10AE50000348D0F8343313B100F5497018477047F0
:10AE6000980100200348D0F8583313B100F5527010
:10AE700018477047980100200348D0F87C3313B17D
:10AE800000F55B7018477047980100200348D0F820
:10AE9000A03313B100F56470184770479801002083
:10AEA0000348D0F8C43313B100F56D7018477047EC
:10AEB000980100200348D0F8E83313B100F576700C
:10AEC00018477047980100200348D0F80C3413B19C
:10AED00000F57F7018477047980100200348D0F8AC
:10AEE000303413B100F58460184770479801002092
:10AEF000094B0A4A013800EBC00003EB8000116BDC
:10AF0000D0F80432064883420CBF4FF400134FF4CC
:10AF100080030B4313637047980100200038024000
:10AF20000060024070B501383C4C3D4D00EBC00C58
:10AF300004EB8C0C9646DCF804623A4AAE420CBF35
:10AF40004FF400154FF48005166B35431563CCF8AC
:10AF50001412CCF81C323449DCF808328B424FEA28
:10AF6000C0023ED001F580618B423AD0A1F57A71E2
:10AF70008B4247D001F580618B4243D0A1F57A71B5
:10AF80008B4241D001F580618B423DD0A1F57A71B1
:10AF90008B4235D001F580618B4231D0A1F57A71B9
:10AFA0008B4233D001F580618B422FD0A1F57A71AD
:10AFB0008B422DD001F580618B4229D0A1F57A71A9
:10AFC0008B4227D001F580618B4223D0A1F57A71A5
:10AFD0008B4221D0154D01F580618B4218BF0025B1
:10AFE00000E0134D104404EB8003CEF38711C3F847
:10AFF000245293F81902BDE87040002256F0F0B8D0
:10B000000C4DEFE70C4DEDE70C4DEBE70C4DE9E790
:10B010000C4DE7E70C4DE5E7044DE3E79801002010
:10B0200000600240003802401060024000800028AA
:10B030002080001000800018008800100080201080
:10B0400020800020008800200080202060B18288BD
:10B050004FF00043B2FA82F2D34005D0034A1168A0
:10B0600021EA030111605361704700BF003C0140B9
:10B070000120FDF713BE00BF0220FDF70FBE00BF89
:10B080000420FDF70BBE00BF0820FDF707BE00BF80
:10B090001020FDF703BE00BF4FF47870FDF7FEBD32
:10B0A0004FF47C40FDF7FABD30B1036882881B691C
:10B0B0001A4214BF01200020704700BF30B50C4673
:10B0C00083B0054618B3036803F13F4303F57E03DD
:10B0D0009B0A104A134493F8F00754F04BFBA988DD
:10B0E000009104F00303C4F381028DF80430286852
:10B0F0008DF80520C4F300136946C4F341148DF89C
:10B1000006308DF807404AF021FB03B030BD4FF008
:10B11000FF33DEE7006A060800B1CFE7704700BFE3
:10B120002DE9F043694B03610D4685B004462320A9
:10B1300011F014FF6B789BB1042B226915D0012B01
:10B14000137014D0236902221A70EB7843B104F112
:10B150001008A97840460DF0CFFA064600283FD1E6
:10B160000026304605B0BDE8F083012313702B792B
:10B17000013B13716B794FF00008434508BF68230A
:10B1800004F1100723750DF10502012375213846DE
:10B190008DF805800DF008FC06460028D2D0206905
:10B1A00058F0E4F8012341460DF1060238460DF04F
:10B1B000FBFB9DF8063003F07E038DF8063008B1E6
:10B1C000682B40D09DF8053003F07E03682B8DF886
:10B1D00005303CD0702BC4D1042384F8D830C0E7AC
:10B1E000E8780DF023FFA0612B780133DBB210B1BA
:10B1F000C371222383710921FFF78EFFA069FFF736
:10B2000029FD334AD2F8C836632BFBD93148DFF821
:10B21000CC90314F0DF046FAA08202E059F8047B41
:10B2200057B14046B84703460028F7D0206984F854
:10B23000D83058F09BF894E7E8780DF0F7FE0DF061
:10B2400055FF3E468DE7012384F8D83089E7022276
:10B25000062384F8D820194602AA38460DF0A4FB2C
:10B26000E0B19DF80D309DF80B209B00520002F0DC
:10B27000020203F0040313439DF8092002F00102C7
:10B2800013430BD0012B1DD0022B17D003F0030367
:10B29000032B13D0032011F01FFF62E701230DF1F0
:10B2A000070238460C210DF07FFB0028F2D09DF8F4
:10B2B000073013F00F03EDD0042B03D0012384F8E3
:10B2C000D9304EE7002384F8D9304AE74C2F0020CC
:10B2D000901C002040420F00F5080508FC7106088C
:10B2E00090F8213103B970472DE9F0471D09013D60
:10B2F000042D82B0044603F00F0370D8394F07EBDA
:10B300004502B2F8180840FA03F2D20767D50126C1
:10B3100006FA03F3013B18403D4459F083FDDFF882
:10B32000D89095F82488304B804409F5F67A0AEBDA
:10B33000C8052622EA80E360AB88B3FA83F3202BAA
:10B34000C3F11F023ED0294B03EB820317440C3498
:10B35000C3F82447284697F82C78FFF777FE00219A
:10B36000FFF7ACFE5AF83800A98800F13F40B1FA67
:10B3700081F100F57E00C1F11F01C0F38720C9B241
:10B380004AF0B4FBAA888DF80660B2FA82F24FF058
:10B390000043B944D34068464FF400620093ADF8CF
:10B3A000042055F043FA99F86C34F02B0DD8AA8894
:10B3B0004FF00043B2FA82F2D34003D00C490A683E
:10B3C00013430B6002B0BDE8F0870A4AF023D05D5A
:10B3D00089F86C340022032155F002FFE7E7024BA5
:10B3E000E360EFE7006A0608898A0008901C0020E5
:10B3F000003C01403CEA0608882D00202DE9F0477A
:10B40000044690F8210144F23B3382B0A4F84C3159
:10B4100010B902B0BDE8F0870509013D042D00F028
:10B420000F0070D8394F07EB4503B3F8183843FACB
:10B4300000F2D20767D5012606FA00F0013818405D
:10B440003D4459F0EFFCDFF8D89095F82488304B54
:10B45000804409F5F67A0AEBC8052622EA80E36003
:10B46000AB88B3FA83F3202BC3F11F02D1D0294B51
:10B4700003EB820317440C34C3F82447284697F89B
:10B480002C78FFF7E3FD0021FFF718FE5AF838008B
:10B49000A98800F13F40B1FA81F100F57E00C1F1C9
:10B4A0001F01C0F38720C9B24AF020FBAA888DF89B
:10B4B0000660B2FA82F24FF00043B944D3406846C6
:10B4C0004FF400620093ADF8042055F0AFF999F8FD
:10B4D0006C34F02B0DD8AA884FF00043B2FA82F2F8
:10B4E000D34096D00C490A6813430B6002B0BDE804
:10B4F000F0870A4AF023D05D89F86C3400220321DA
:10B5000055F06EFEE7E7024BE36082E7006A06084B
:10B51000898A0008901C0020003C01403CEA060893
:10B52000882D00200D4B70B51E6B002E14DD0C4CC9
:10B53000002503E0B54204F120040DD0237F01353E
